{
  "contractName": "TestUniswapLiquidity",
  "abi": [
    {
      "inputs": [
        {
          "internalType": "address",
          "name": "token",
          "type": "address"
        }
      ],
      "stateMutability": "nonpayable",
      "type": "constructor"
    },
    {
      "inputs": [
        {
          "internalType": "address",
          "name": "_tokenA",
          "type": "address"
        },
        {
          "internalType": "address",
          "name": "_tokenB",
          "type": "address"
        },
        {
          "internalType": "uint256",
          "name": "_amountA",
          "type": "uint256"
        },
        {
          "internalType": "uint256",
          "name": "_amountB",
          "type": "uint256"
        }
      ],
      "name": "addLiquidity",
      "outputs": [],
      "stateMutability": "nonpayable",
      "type": "function"
    },
    {
      "inputs": [
        {
          "internalType": "address",
          "name": "_tokenA",
          "type": "address"
        },
        {
          "internalType": "address",
          "name": "_tokenB",
          "type": "address"
        }
      ],
      "name": "removeLiquidity",
      "outputs": [],
      "stateMutability": "nonpayable",
      "type": "function"
    },
    {
      "inputs": [
        {
          "internalType": "address",
          "name": "_tokenIn",
          "type": "address"
        },
        {
          "internalType": "address",
          "name": "_tokenOut",
          "type": "address"
        },
        {
          "internalType": "uint256",
          "name": "_amountIn",
          "type": "uint256"
        },
        {
          "internalType": "uint256",
          "name": "_amountOutMin",
          "type": "uint256"
        },
        {
          "internalType": "address",
          "name": "_to",
          "type": "address"
        }
      ],
      "name": "swap",
      "outputs": [],
      "stateMutability": "nonpayable",
      "type": "function"
    }
  ],
  "bytecode": "0x60806040523480156200001157600080fd5b50604051620014ad380380620014ad8339818101604052810190620000379190620000e8565b806000806101000a81548173ffffffffffffffffffffffffffffffffffffffff021916908373ffffffffffffffffffffffffffffffffffffffff160217905550506200011a565b600080fd5b600073ffffffffffffffffffffffffffffffffffffffff82169050919050565b6000620000b08262000083565b9050919050565b620000c281620000a3565b8114620000ce57600080fd5b50565b600081519050620000e281620000b7565b92915050565b6000602082840312156200010157620001006200007e565b5b60006200011184828501620000d1565b91505092915050565b611383806200012a6000396000f3fe608060405234801561001057600080fd5b50600436106100415760003560e01c80639cf38f7c14610046578063cf6c62ea14610062578063d5bcb9b51461007e575b600080fd5b610060600480360381019061005b9190610c34565b61009a565b005b61007c60048036038101906100779190610caa565b6102ea565b005b61009860048036038101906100939190610d11565b610713565b005b6000735c69bee701ef814a2b6a3edd4b1652cb9cc5aa6f73ffffffffffffffffffffffffffffffffffffffff1663e6a4390584846040518363ffffffff1660e01b81526004016100eb929190610d9b565b602060405180830381865afa158015610108573d6000803e3d6000fd5b505050506040513d601f19601f8201168201806040525081019061012c9190610dd9565b905060008173ffffffffffffffffffffffffffffffffffffffff166370a08231306040518263ffffffff1660e01b81526004016101699190610e06565b602060405180830381865afa158015610186573d6000803e3d6000fd5b505050506040513d601f19601f820116820180604052508101906101aa9190610e36565b90508173ffffffffffffffffffffffffffffffffffffffff1663095ea7b3737a250d5630b4cf539739df2c5dacb4c659f2488d836040518363ffffffff1660e01b81526004016101fb929190610e72565b6020604051808303816000875af115801561021a573d6000803e3d6000fd5b505050506040513d601f19601f8201168201806040525081019061023e9190610ed3565b50600080737a250d5630b4cf539739df2c5dacb4c659f2488d73ffffffffffffffffffffffffffffffffffffffff1663baa2abde87878660018030426040518863ffffffff1660e01b815260040161029c9796959493929190610f45565b60408051808303816000875af11580156102ba573d6000803e3d6000fd5b505050506040513d601f19601f820116820180604052508101906102de9190610fb4565b91509150505050505050565b8373ffffffffffffffffffffffffffffffffffffffff166323b872dd3330856040518463ffffffff1660e01b815260040161032793929190610ff4565b6020604051808303816000875af1158015610346573d6000803e3d6000fd5b505050506040513d601f19601f8201168201806040525081019061036a9190610ed3565b508273ffffffffffffffffffffffffffffffffffffffff166323b872dd3330846040518463ffffffff1660e01b81526004016103a893929190610ff4565b6020604051808303816000875af11580156103c7573d6000803e3d6000fd5b505050506040513d601f19601f820116820180604052508101906103eb9190610ed3565b5060008060009054906101000a900473ffffffffffffffffffffffffffffffffffffffff1673ffffffffffffffffffffffffffffffffffffffff1663095a1192836040518263ffffffff1660e01b8152600401610448919061102b565b602060405180830381865afa158015610465573d6000803e3d6000fd5b505050506040513d601f19601f820116820180604052508101906104899190610e36565b90508473ffffffffffffffffffffffffffffffffffffffff1663095ea7b3737a250d5630b4cf539739df2c5dacb4c659f2488d856040518363ffffffff1660e01b81526004016104da929190610e72565b6020604051808303816000875af11580156104f9573d6000803e3d6000fd5b505050506040513d601f19601f8201168201806040525081019061051d9190610ed3565b508373ffffffffffffffffffffffffffffffffffffffff1663095ea7b3737a250d5630b4cf539739df2c5dacb4c659f2488d836040518363ffffffff1660e01b815260040161056d929190610e72565b6020604051808303816000875af115801561058c573d6000803e3d6000fd5b505050506040513d601f19601f820116820180604052508101906105b09190610ed3565b5060008060009054906101000a900473ffffffffffffffffffffffffffffffffffffffff1673ffffffffffffffffffffffffffffffffffffffff1663095a1192836040518263ffffffff1660e01b815260040161060d919061102b565b602060405180830381865afa15801561062a573d6000803e3d6000fd5b505050506040513d601f19601f8201168201806040525081019061064e9190610e36565b90506000806000737a250d5630b4cf539739df2c5dacb4c659f2488d73ffffffffffffffffffffffffffffffffffffffff1663e8e337008a8a8a886000803362057e404261069c9190611075565b6040518963ffffffff1660e01b81526004016106bf989796959493929190611106565b6060604051808303816000875af11580156106de573d6000803e3d6000fd5b505050506040513d601f19601f820116820180604052508101906107029190611184565b925092509250505050505050505050565b8473ffffffffffffffffffffffffffffffffffffffff166323b872dd3330866040518463ffffffff1660e01b815260040161075093929190610ff4565b6020604051808303816000875af115801561076f573d6000803e3d6000fd5b505050506040513d601f19601f820116820180604052508101906107939190610ed3565b5060008060009054906101000a900473ffffffffffffffffffffffffffffffffffffffff1673ffffffffffffffffffffffffffffffffffffffff1663095a1192856040518263ffffffff1660e01b81526004016107f0919061102b565b602060405180830381865afa15801561080d573d6000803e3d6000fd5b505050506040513d601f19601f820116820180604052508101906108319190610e36565b90508573ffffffffffffffffffffffffffffffffffffffff1663095ea7b3737a250d5630b4cf539739df2c5dacb4c659f2488d836040518363ffffffff1660e01b8152600401610882929190610e72565b6020604051808303816000875af11580156108a1573d6000803e3d6000fd5b505050506040513d601f19601f820116820180604052508101906108c59190610ed3565b50606073c02aaa39b223fe8d0a0e5c4f27ead9083c756cc273ffffffffffffffffffffffffffffffffffffffff168773ffffffffffffffffffffffffffffffffffffffff161480610955575073c02aaa39b223fe8d0a0e5c4f27ead9083c756cc273ffffffffffffffffffffffffffffffffffffffff168673ffffffffffffffffffffffffffffffffffffffff16145b15610a4957600267ffffffffffffffff811115610975576109746111d7565b5b6040519080825280602002602001820160405280156109a35781602001602082028036833780820191505090505b50905086816000815181106109bb576109ba611206565b5b602002602001019073ffffffffffffffffffffffffffffffffffffffff16908173ffffffffffffffffffffffffffffffffffffffff16815250508581600181518110610a0a57610a09611206565b5b602002602001019073ffffffffffffffffffffffffffffffffffffffff16908173ffffffffffffffffffffffffffffffffffffffff1681525050610b34565b600267ffffffffffffffff811115610a6457610a636111d7565b5b604051908082528060200260200182016040528015610a925781602001602082028036833780820191505090505b5090508681600081518110610aaa57610aa9611206565b5b602002602001019073ffffffffffffffffffffffffffffffffffffffff16908173ffffffffffffffffffffffffffffffffffffffff16815250508581600181518110610af957610af8611206565b5b602002602001019073ffffffffffffffffffffffffffffffffffffffff16908173ffffffffffffffffffffffffffffffffffffffff16815250505b737a250d5630b4cf539739df2c5dacb4c659f2488d73ffffffffffffffffffffffffffffffffffffffff16635c11d79583868487618ca042610b769190611075565b6040518663ffffffff1660e01b8152600401610b969594939291906112f3565b600060405180830381600087803b158015610bb057600080fd5b505af1158015610bc4573d6000803e3d6000fd5b5050505050505050505050565b600080fd5b600073ffffffffffffffffffffffffffffffffffffffff82169050919050565b6000610c0182610bd6565b9050919050565b610c1181610bf6565b8114610c1c57600080fd5b50565b600081359050610c2e81610c08565b92915050565b60008060408385031215610c4b57610c4a610bd1565b5b6000610c5985828601610c1f565b9250506020610c6a85828601610c1f565b9150509250929050565b6000819050919050565b610c8781610c74565b8114610c9257600080fd5b50565b600081359050610ca481610c7e565b92915050565b60008060008060808587031215610cc457610cc3610bd1565b5b6000610cd287828801610c1f565b9450506020610ce387828801610c1f565b9350506040610cf487828801610c95565b9250506060610d0587828801610c95565b91505092959194509250565b600080600080600060a08688031215610d2d57610d2c610bd1565b5b6000610d3b88828901610c1f565b9550506020610d4c88828901610c1f565b9450506040610d5d88828901610c95565b9350506060610d6e88828901610c95565b9250506080610d7f88828901610c1f565b9150509295509295909350565b610d9581610bf6565b82525050565b6000604082019050610db06000830185610d8c565b610dbd6020830184610d8c565b9392505050565b600081519050610dd381610c08565b92915050565b600060208284031215610def57610dee610bd1565b5b6000610dfd84828501610dc4565b91505092915050565b6000602082019050610e1b6000830184610d8c565b92915050565b600081519050610e3081610c7e565b92915050565b600060208284031215610e4c57610e4b610bd1565b5b6000610e5a84828501610e21565b91505092915050565b610e6c81610c74565b82525050565b6000604082019050610e876000830185610d8c565b610e946020830184610e63565b9392505050565b60008115159050919050565b610eb081610e9b565b8114610ebb57600080fd5b50565b600081519050610ecd81610ea7565b92915050565b600060208284031215610ee957610ee8610bd1565b5b6000610ef784828501610ebe565b91505092915050565b6000819050919050565b6000819050919050565b6000610f2f610f2a610f2584610f00565b610f0a565b610c74565b9050919050565b610f3f81610f14565b82525050565b600060e082019050610f5a600083018a610d8c565b610f676020830189610d8c565b610f746040830188610e63565b610f816060830187610f36565b610f8e6080830186610f36565b610f9b60a0830185610d8c565b610fa860c0830184610e63565b98975050505050505050565b60008060408385031215610fcb57610fca610bd1565b5b6000610fd985828601610e21565b9250506020610fea85828601610e21565b9150509250929050565b60006060820190506110096000830186610d8c565b6110166020830185610d8c565b6110236040830184610e63565b949350505050565b60006020820190506110406000830184610e63565b92915050565b7f4e487b7100000000000000000000000000000000000000000000000000000000600052601160045260246000fd5b600061108082610c74565b915061108b83610c74565b9250827fffffffffffffffffffffffffffffffffffffffffffffffffffffffffffffffff038211156110c0576110bf611046565b5b828201905092915050565b6000819050919050565b60006110f06110eb6110e6846110cb565b610f0a565b610c74565b9050919050565b611100816110d5565b82525050565b60006101008201905061111c600083018b610d8c565b611129602083018a610d8c565b6111366040830189610e63565b6111436060830188610e63565b61115060808301876110f7565b61115d60a08301866110f7565b61116a60c0830185610d8c565b61117760e0830184610e63565b9998505050505050505050565b60008060006060848603121561119d5761119c610bd1565b5b60006111ab86828701610e21565b93505060206111bc86828701610e21565b92505060406111cd86828701610e21565b9150509250925092565b7f4e487b7100000000000000000000000000000000000000000000000000000000600052604160045260246000fd5b7f4e487b7100000000000000000000000000000000000000000000000000000000600052603260045260246000fd5b600081519050919050565b600082825260208201905092915050565b6000819050602082019050919050565b61126a81610bf6565b82525050565b600061127c8383611261565b60208301905092915050565b6000602082019050919050565b60006112a082611235565b6112aa8185611240565b93506112b583611251565b8060005b838110156112e65781516112cd8882611270565b97506112d883611288565b9250506001810190506112b9565b5085935050505092915050565b600060a0820190506113086000830188610e63565b6113156020830187610e63565b81810360408301526113278186611295565b90506113366060830185610d8c565b6113436080830184610e63565b969550505050505056fea264697066735822122019f2d902cb0d7222018cfc08b0ed5346f2a598c21b1d2e753bcaf7dd2258b9c464736f6c634300080d0033",
  "immutableReferences": {},
  "source": "// SPDX-License-Identifier: MIT\r\npragma solidity ^0.8.13;\r\nimport \"./tokenB.sol\";\r\n\r\ncontract TestUniswapLiquidity {\r\n    address private constant FACTORY = 0x5C69bEe701ef814a2B6a3EDD4B1652CB9cc5aA6f;\r\n    address private constant ROUTER = 0x7a250d5630B4cF539739dF2C5dAcb4c659F2488D;\r\n    address private constant WETH = 0xC02aaA39b223FE8D0A0e5C4F27eAD9083C756Cc2;\r\n    Token tokenB;\r\n\r\n    constructor(address token){\r\n        tokenB = Token(token);\r\n    }\r\n\r\n    function addLiquidity(\r\n        address _tokenA,\r\n        address _tokenB,\r\n        uint _amountA,\r\n        uint _amountB\r\n    ) external {\r\n        IERC20(_tokenA).transferFrom(msg.sender, address(this), _amountA);\r\n        IERC20(_tokenB).transferFrom(msg.sender, address(this), _amountB);\r\n        uint amount_b1 = tokenB.balancefee(_amountB);\r\n        IERC20(_tokenA).approve(ROUTER, _amountA);\r\n        IERC20(_tokenB).approve(ROUTER, amount_b1);\r\n        uint amount_b2 = tokenB.balancefee(amount_b1);\r\n\r\n        (uint amountA, uint amountB, uint liquidity) = IUniswapV2Router(ROUTER)\r\n            .addLiquidity(\r\n                _tokenA,\r\n                _tokenB,\r\n                _amountA,\r\n                amount_b2,\r\n                0,\r\n                0,\r\n                msg.sender,\r\n                block.timestamp+360000\r\n            );\r\n    }\r\n\r\n    function removeLiquidity(address _tokenA, address _tokenB) external {\r\n        address pair = IUniswapV2Factory(FACTORY).getPair(_tokenA, _tokenB);\r\n\r\n        uint liquidity = IERC20(pair).balanceOf(address(this));\r\n        IERC20(pair).approve(ROUTER, liquidity);\r\n\r\n        (uint amountA, uint amountB) = IUniswapV2Router(ROUTER).removeLiquidity(\r\n            _tokenA,\r\n            _tokenB,\r\n            liquidity,\r\n            1,\r\n            1,\r\n            address(this),\r\n            block.timestamp\r\n        );\r\n    }\r\n\r\n    function swap(\r\n    address _tokenIn,\r\n    address _tokenOut,\r\n    uint _amountIn,\r\n    uint _amountOutMin,\r\n    address _to\r\n  ) external {\r\n    IERC20(_tokenIn).transferFrom(msg.sender, address(this), _amountIn);\r\n    uint amount_b1 = tokenB.balancefee(_amountIn);\r\n    IERC20(_tokenIn).approve(ROUTER, amount_b1);\r\n    \r\n\r\n    address[] memory path;\r\n    if (_tokenIn == WETH || _tokenOut == WETH) {\r\n      path = new address[](2);\r\n      path[0] = _tokenIn;\r\n      path[1] = _tokenOut;\r\n    } else {\r\n      path = new address[](2);\r\n      path[0] = _tokenIn;\r\n      //path[1] = WETH;\r\n      path[1] = _tokenOut;\r\n    }\r\n\r\n    IUniswapV2Router(ROUTER).swapExactTokensForTokensSupportingFeeOnTransferTokens(\r\n      amount_b1,\r\n      _amountOutMin,\r\n      path,\r\n      _to,\r\n      block.timestamp+36000\r\n    );\r\n  }\r\n\r\n  \r\n}\r\n\r\ninterface IUniswapV2Router {\r\n    function addLiquidity(\r\n        address tokenA,\r\n        address tokenB,\r\n        uint amountADesired,\r\n        uint amountBDesired,\r\n        uint amountAMin,\r\n        uint amountBMin,\r\n        address to,\r\n        uint deadline\r\n    )\r\n        external\r\n        returns (\r\n            uint amountA,\r\n            uint amountB,\r\n            uint liquidity\r\n        );\r\n\r\n    function removeLiquidity(\r\n        address tokenA,\r\n        address tokenB,\r\n        uint liquidity,\r\n        uint amountAMin,\r\n        uint amountBMin,\r\n        address to,\r\n        uint deadline\r\n    ) external returns (uint amountA, uint amountB);\r\n\r\n    function swapExactTokensForTokens(\r\n        uint amountIn,\r\n        uint amountOutMin,\r\n        address[] calldata path,\r\n        address to,\r\n        uint deadline\r\n    ) external returns (uint[] memory amounts);\r\n\r\n    function swapExactTokensForTokensSupportingFeeOnTransferTokens(\r\n        uint amountIn,\r\n        uint amountOutMin,\r\n        address[] calldata path,\r\n        address to,\r\n        uint deadline\r\n    ) external;\r\n}\r\n\r\ninterface IUniswapV2Factory {\r\n    function getPair(address token0, address token1) external view returns (address);\r\n}\r\n\r\ninterface IERC20 {\r\n    function totalSupply() external view returns (uint);\r\n\r\n    function balanceOf(address account) external view returns (uint);\r\n\r\n    function transfer(address recipient, uint amount) external returns (bool);\r\n\r\n    function allowance(address owner, address spender) external view returns (uint);\r\n\r\n    function approve(address spender, uint amount) external returns (bool);\r\n\r\n    function transferFrom(\r\n        address sender,\r\n        address recipient,\r\n        uint amount\r\n    ) external returns (bool);\r\n}",
  "sourcePath": "C:\\Users\\Aryan\\OneDrive\\Desktop\\code\\uniswap\\contracts\\uniswap.sol",
  "compiler": {
    "name": "solc",
    "version": "0.8.13+commit.abaa5c0e.Emscripten.clang"
  },
  "schemaVersion": "3.4.4",
  "updatedAt": "2022-07-18T04:27:27.445Z",
  "devdoc": {
    "kind": "dev",
    "methods": {},
    "version": 1
  },
  "userdoc": {
    "kind": "user",
    "methods": {},
    "version": 1
  }
}