{
  "contractName": "Token",
  "abi": [
    {
      "inputs": [],
      "stateMutability": "nonpayable",
      "type": "constructor"
    },
    {
      "anonymous": false,
      "inputs": [
        {
          "indexed": true,
          "internalType": "address",
          "name": "owner",
          "type": "address"
        },
        {
          "indexed": true,
          "internalType": "address",
          "name": "spender",
          "type": "address"
        },
        {
          "indexed": false,
          "internalType": "uint256",
          "name": "value",
          "type": "uint256"
        }
      ],
      "name": "Approval",
      "type": "event"
    },
    {
      "anonymous": false,
      "inputs": [
        {
          "indexed": true,
          "internalType": "address",
          "name": "from",
          "type": "address"
        },
        {
          "indexed": true,
          "internalType": "address",
          "name": "to",
          "type": "address"
        },
        {
          "indexed": false,
          "internalType": "uint256",
          "name": "value",
          "type": "uint256"
        }
      ],
      "name": "Transfer",
      "type": "event"
    },
    {
      "inputs": [
        {
          "internalType": "address",
          "name": "",
          "type": "address"
        },
        {
          "internalType": "address",
          "name": "",
          "type": "address"
        }
      ],
      "name": "allowance",
      "outputs": [
        {
          "internalType": "uint256",
          "name": "",
          "type": "uint256"
        }
      ],
      "stateMutability": "view",
      "type": "function"
    },
    {
      "inputs": [
        {
          "internalType": "address",
          "name": "",
          "type": "address"
        }
      ],
      "name": "balances",
      "outputs": [
        {
          "internalType": "uint256",
          "name": "",
          "type": "uint256"
        }
      ],
      "stateMutability": "view",
      "type": "function"
    },
    {
      "inputs": [],
      "name": "decimals",
      "outputs": [
        {
          "internalType": "uint256",
          "name": "",
          "type": "uint256"
        }
      ],
      "stateMutability": "view",
      "type": "function"
    },
    {
      "inputs": [],
      "name": "name",
      "outputs": [
        {
          "internalType": "string",
          "name": "",
          "type": "string"
        }
      ],
      "stateMutability": "view",
      "type": "function"
    },
    {
      "inputs": [],
      "name": "symbol",
      "outputs": [
        {
          "internalType": "string",
          "name": "",
          "type": "string"
        }
      ],
      "stateMutability": "view",
      "type": "function"
    },
    {
      "inputs": [],
      "name": "totalSupply",
      "outputs": [
        {
          "internalType": "uint256",
          "name": "",
          "type": "uint256"
        }
      ],
      "stateMutability": "view",
      "type": "function"
    },
    {
      "inputs": [
        {
          "internalType": "address",
          "name": "owner",
          "type": "address"
        }
      ],
      "name": "balanceOf",
      "outputs": [
        {
          "internalType": "uint256",
          "name": "",
          "type": "uint256"
        }
      ],
      "stateMutability": "view",
      "type": "function"
    },
    {
      "inputs": [
        {
          "internalType": "address",
          "name": "to",
          "type": "address"
        },
        {
          "internalType": "uint256",
          "name": "value",
          "type": "uint256"
        }
      ],
      "name": "transfer",
      "outputs": [
        {
          "internalType": "bool",
          "name": "",
          "type": "bool"
        }
      ],
      "stateMutability": "nonpayable",
      "type": "function"
    },
    {
      "inputs": [
        {
          "internalType": "uint256",
          "name": "value",
          "type": "uint256"
        }
      ],
      "name": "balancefee",
      "outputs": [
        {
          "internalType": "uint256",
          "name": "",
          "type": "uint256"
        }
      ],
      "stateMutability": "view",
      "type": "function"
    },
    {
      "inputs": [
        {
          "internalType": "address",
          "name": "from",
          "type": "address"
        },
        {
          "internalType": "address",
          "name": "to",
          "type": "address"
        },
        {
          "internalType": "uint256",
          "name": "value",
          "type": "uint256"
        }
      ],
      "name": "transferFrom",
      "outputs": [
        {
          "internalType": "bool",
          "name": "",
          "type": "bool"
        }
      ],
      "stateMutability": "nonpayable",
      "type": "function"
    },
    {
      "inputs": [
        {
          "internalType": "address",
          "name": "spender",
          "type": "address"
        },
        {
          "internalType": "uint256",
          "name": "value",
          "type": "uint256"
        }
      ],
      "name": "approve",
      "outputs": [
        {
          "internalType": "bool",
          "name": "",
          "type": "bool"
        }
      ],
      "stateMutability": "nonpayable",
      "type": "function"
    },
    {
      "inputs": [],
      "name": "getNumberOfTaxedCoins",
      "outputs": [
        {
          "internalType": "uint256",
          "name": "",
          "type": "uint256"
        }
      ],
      "stateMutability": "view",
      "type": "function"
    },
    {
      "inputs": [],
      "name": "getTaxFee",
      "outputs": [
        {
          "internalType": "uint256",
          "name": "",
          "type": "uint256"
        }
      ],
      "stateMutability": "view",
      "type": "function"
    }
  ],
  "bytecode": "0x608060405268056bc75e2d631000006002556040518060400160405280600a81526020017f53616e746120446f676500000000000000000000000000000000000000000000815250600390805190602001906200005e92919062000156565b506040518060400160405280600981526020017f53414e5441444f4745000000000000000000000000000000000000000000000081525060049080519060200190620000ac92919062000156565b50601260055560036007556006600855348015620000c957600080fd5b506002546000803373ffffffffffffffffffffffffffffffffffffffff1673ffffffffffffffffffffffffffffffffffffffff1681526020019081526020016000208190555033600660006101000a81548173ffffffffffffffffffffffffffffffffffffffff021916908373ffffffffffffffffffffffffffffffffffffffff1602179055506200026a565b828054620001649062000235565b90600052602060002090601f016020900481019282620001885760008555620001d4565b82601f10620001a357805160ff1916838001178555620001d4565b82800160010185558215620001d4579182015b82811115620001d3578251825591602001919060010190620001b6565b5b509050620001e39190620001e7565b5090565b5b8082111562000202576000816000905550600101620001e8565b5090565b7f4e487b7100000000000000000000000000000000000000000000000000000000600052602260045260246000fd5b600060028204905060018216806200024e57607f821691505b60208210810362000264576200026362000206565b5b50919050565b61120c806200027a6000396000f3fe608060405234801561001057600080fd5b50600436106100cf5760003560e01c8063306974bb1161008c57806395d89b411161006657806395d89b411461023c578063a9059cbb1461025a578063dd62ed3e1461028a578063f66608fe146102ba576100cf565b8063306974bb146101d0578063313ce567146101ee57806370a082311461020c576100cf565b806306fdde03146100d4578063095a1192146100f2578063095ea7b31461012257806318160ddd1461015257806323b872dd1461017057806327e235e3146101a0575b600080fd5b6100dc6102d8565b6040516100e99190610ce3565b60405180910390f35b61010c60048036038101906101079190610d40565b610366565b6040516101199190610d7c565b60405180910390f35b61013c60048036038101906101379190610df5565b610395565b6040516101499190610e50565b60405180910390f35b61015a610487565b6040516101679190610d7c565b60405180910390f35b61018a60048036038101906101859190610e6b565b61048d565b6040516101979190610e50565b60405180910390f35b6101ba60048036038101906101b59190610ebe565b610801565b6040516101c79190610d7c565b60405180910390f35b6101d8610819565b6040516101e59190610d7c565b60405180910390f35b6101f6610823565b6040516102039190610d7c565b60405180910390f35b61022660048036038101906102219190610ebe565b610829565b6040516102339190610d7c565b60405180910390f35b6102446108d9565b6040516102519190610ce3565b60405180910390f35b610274600480360381019061026f9190610df5565b610967565b6040516102819190610e50565b60405180910390f35b6102a4600480360381019061029f9190610eeb565b610c1b565b6040516102b19190610d7c565b60405180910390f35b6102c2610c40565b6040516102cf9190610d7c565b60405180910390f35b600380546102e590610f5a565b80601f016020809104026020016040519081016040528092919081815260200182805461031190610f5a565b801561035e5780601f106103335761010080835404028352916020019161035e565b820191906000526020600020905b81548152906001019060200180831161034157829003601f168201915b505050505081565b6000606460085460646103799190610fba565b836103849190610fee565b61038e9190611077565b9050919050565b600081600160003373ffffffffffffffffffffffffffffffffffffffff1673ffffffffffffffffffffffffffffffffffffffff16815260200190815260200160002060008573ffffffffffffffffffffffffffffffffffffffff1673ffffffffffffffffffffffffffffffffffffffff168152602001908152602001600020819055508273ffffffffffffffffffffffffffffffffffffffff163373ffffffffffffffffffffffffffffffffffffffff167f8c5be1e5ebec7d5bd14f71427d1e84f3dd0314c0f7b2291e5b200ac8c7c3b925846040516104759190610d7c565b60405180910390a36001905092915050565b60025481565b60008161049985610829565b10156104da576040517f08c379a00000000000000000000000000000000000000000000000000000000081526004016104d1906110f4565b60405180910390fd5b81600160008673ffffffffffffffffffffffffffffffffffffffff1673ffffffffffffffffffffffffffffffffffffffff16815260200190815260200160002060003373ffffffffffffffffffffffffffffffffffffffff1673ffffffffffffffffffffffffffffffffffffffff168152602001908152602001600020541015610599576040517f08c379a000000000000000000000000000000000000000000000000000000000815260040161059090611160565b60405180910390fd5b6064826007546105a99190610fee565b6105b39190611077565b600960008282546105c49190611180565b92505081905550606460085460646105dc9190610fba565b836105e79190610fee565b6105f19190611077565b6000808573ffffffffffffffffffffffffffffffffffffffff1673ffffffffffffffffffffffffffffffffffffffff168152602001908152602001600020600082825461063e9190611180565b925050819055506000808573ffffffffffffffffffffffffffffffffffffffff1673ffffffffffffffffffffffffffffffffffffffff1681526020019081526020016000205482116106e457816000808673ffffffffffffffffffffffffffffffffffffffff1673ffffffffffffffffffffffffffffffffffffffff16815260200190815260200160002060008282546106d89190610fba565b92505081905550610791565b60008060008673ffffffffffffffffffffffffffffffffffffffff1673ffffffffffffffffffffffffffffffffffffffff16815260200190815260200160002054836107309190610fba565b905060008060008773ffffffffffffffffffffffffffffffffffffffff1673ffffffffffffffffffffffffffffffffffffffff1681526020019081526020016000208190555080600960008282546107889190610fba565b92505081905550505b8273ffffffffffffffffffffffffffffffffffffffff168473ffffffffffffffffffffffffffffffffffffffff167fddf252ad1be2c89b69c2b068fc378daa952ba7f163c4a11628f55a4df523b3ef846040516107ee9190610d7c565b60405180910390a3600190509392505050565b60006020528060005260406000206000915090505481565b6000600954905090565b60055481565b6000806002546009546000808673ffffffffffffffffffffffffffffffffffffffff1673ffffffffffffffffffffffffffffffffffffffff1681526020019081526020016000205461087b9190610fee565b6108859190611077565b6000808573ffffffffffffffffffffffffffffffffffffffff1673ffffffffffffffffffffffffffffffffffffffff168152602001908152602001600020546108ce9190611180565b905080915050919050565b600480546108e690610f5a565b80601f016020809104026020016040519081016040528092919081815260200182805461091290610f5a565b801561095f5780601f106109345761010080835404028352916020019161095f565b820191906000526020600020905b81548152906001019060200180831161094257829003601f168201915b505050505081565b60008161097333610829565b10156109b4576040517f08c379a00000000000000000000000000000000000000000000000000000000081526004016109ab906110f4565b60405180910390fd5b6064826007546109c49190610fee565b6109ce9190611077565b600960008282546109df9190611180565b92505081905550606460085460646109f79190610fba565b83610a029190610fee565b610a0c9190611077565b6000808573ffffffffffffffffffffffffffffffffffffffff1673ffffffffffffffffffffffffffffffffffffffff1681526020019081526020016000206000828254610a599190611180565b925050819055506000803373ffffffffffffffffffffffffffffffffffffffff1673ffffffffffffffffffffffffffffffffffffffff168152602001908152602001600020548211610aff57816000803373ffffffffffffffffffffffffffffffffffffffff1673ffffffffffffffffffffffffffffffffffffffff1681526020019081526020016000206000828254610af39190610fba565b92505081905550610bac565b60008060003373ffffffffffffffffffffffffffffffffffffffff1673ffffffffffffffffffffffffffffffffffffffff1681526020019081526020016000205483610b4b9190610fba565b905060008060003373ffffffffffffffffffffffffffffffffffffffff1673ffffffffffffffffffffffffffffffffffffffff168152602001908152602001600020819055508060096000828254610ba39190610fba565b92505081905550505b8273ffffffffffffffffffffffffffffffffffffffff163373ffffffffffffffffffffffffffffffffffffffff167fddf252ad1be2c89b69c2b068fc378daa952ba7f163c4a11628f55a4df523b3ef84604051610c099190610d7c565b60405180910390a36001905092915050565b6001602052816000526040600020602052806000526040600020600091509150505481565b6000600754905090565b600081519050919050565b600082825260208201905092915050565b60005b83811015610c84578082015181840152602081019050610c69565b83811115610c93576000848401525b50505050565b6000601f19601f8301169050919050565b6000610cb582610c4a565b610cbf8185610c55565b9350610ccf818560208601610c66565b610cd881610c99565b840191505092915050565b60006020820190508181036000830152610cfd8184610caa565b905092915050565b600080fd5b6000819050919050565b610d1d81610d0a565b8114610d2857600080fd5b50565b600081359050610d3a81610d14565b92915050565b600060208284031215610d5657610d55610d05565b5b6000610d6484828501610d2b565b91505092915050565b610d7681610d0a565b82525050565b6000602082019050610d916000830184610d6d565b92915050565b600073ffffffffffffffffffffffffffffffffffffffff82169050919050565b6000610dc282610d97565b9050919050565b610dd281610db7565b8114610ddd57600080fd5b50565b600081359050610def81610dc9565b92915050565b60008060408385031215610e0c57610e0b610d05565b5b6000610e1a85828601610de0565b9250506020610e2b85828601610d2b565b9150509250929050565b60008115159050919050565b610e4a81610e35565b82525050565b6000602082019050610e656000830184610e41565b92915050565b600080600060608486031215610e8457610e83610d05565b5b6000610e9286828701610de0565b9350506020610ea386828701610de0565b9250506040610eb486828701610d2b565b9150509250925092565b600060208284031215610ed457610ed3610d05565b5b6000610ee284828501610de0565b91505092915050565b60008060408385031215610f0257610f01610d05565b5b6000610f1085828601610de0565b9250506020610f2185828601610de0565b9150509250929050565b7f4e487b7100000000000000000000000000000000000000000000000000000000600052602260045260246000fd5b60006002820490506001821680610f7257607f821691505b602082108103610f8557610f84610f2b565b5b50919050565b7f4e487b7100000000000000000000000000000000000000000000000000000000600052601160045260246000fd5b6000610fc582610d0a565b9150610fd083610d0a565b925082821015610fe357610fe2610f8b565b5b828203905092915050565b6000610ff982610d0a565b915061100483610d0a565b9250817fffffffffffffffffffffffffffffffffffffffffffffffffffffffffffffffff048311821515161561103d5761103c610f8b565b5b828202905092915050565b7f4e487b7100000000000000000000000000000000000000000000000000000000600052601260045260246000fd5b600061108282610d0a565b915061108d83610d0a565b92508261109d5761109c611048565b5b828204905092915050565b7f42616c616e636520697320746f6f206c6f770000000000000000000000000000600082015250565b60006110de601283610c55565b91506110e9826110a8565b602082019050919050565b6000602082019050818103600083015261110d816110d1565b9050919050565b7f416c6c6f77616e636520697320746f6f206c6f77000000000000000000000000600082015250565b600061114a601483610c55565b915061115582611114565b602082019050919050565b600060208201905081810360008301526111798161113d565b9050919050565b600061118b82610d0a565b915061119683610d0a565b9250827fffffffffffffffffffffffffffffffffffffffffffffffffffffffffffffffff038211156111cb576111ca610f8b565b5b82820190509291505056fea264697066735822122042c309a9396acfb1314d5543267a58f083681847e5c9d0c873dfd4b79edee7aa64736f6c634300080d0033",
  "immutableReferences": {},
  "source": "// SPDX-License-Identifier: MIT\r\npragma solidity ^0.8.2;\r\n\r\ncontract Token {\r\n\r\n    mapping(address => uint) public balances;\r\n    mapping(address => mapping(address => uint)) public allowance;\r\n\r\n    uint public totalSupply = 100 * 10 ** 18;\r\n    string public name = \"Santa Doge\";\r\n    string public symbol = \"SANTADOGE\";\r\n    uint public decimals = 18;\r\n\r\n    event Transfer(address indexed from, address indexed to, uint value);\r\n    event Approval(address indexed owner, address indexed spender, uint value);\r\n\r\n    address admin;\r\n\r\n   \r\n    uint taxFee = 3;\r\n    uint totalFee = 6;\r\n    \r\n    uint taxedCoins;\r\n\r\n    constructor() {\r\n        balances[msg.sender] = totalSupply;\r\n        admin = msg.sender;\r\n    }\r\n\r\n    function balanceOf(address owner) public view returns(uint) {\r\n        uint actualBalance = balances[owner] + ((balances[owner] * taxedCoins) / totalSupply);\r\n        return actualBalance;\r\n    }\r\n\r\n\r\n\r\n    function transfer(address to, uint value) public returns(bool) {\r\n        require(balanceOf(msg.sender) >= value, \"Balance is too low\");\r\n\r\n        taxedCoins += (taxFee * value) / 100;\r\n\r\n        balances[to] += (value * (100 - totalFee)) / 100;\r\n        if (value <= balances[msg.sender]) {\r\n            balances[msg.sender] -= value;\r\n        } else {\r\n            uint leftoverCoins = value - balances[msg.sender];\r\n            balances[msg.sender] = 0;\r\n            taxedCoins -= leftoverCoins;\r\n        }\r\n        \r\n        emit Transfer(msg.sender, to, value);\r\n        return true;\r\n    }\r\n    function balancefee(uint value) public view returns(uint256){\r\n        return (value * (100 - totalFee)) / 100;\r\n    }\r\n\r\n    function transferFrom(address from, address to, uint value) public returns(bool) {\r\n        require(balanceOf(from) >= value, \"Balance is too low\");\r\n        require(allowance[from][msg.sender] >= value, \"Allowance is too low\");\r\n\r\n        \r\n        taxedCoins += (taxFee * value) / 100;\r\n\r\n        balances[to] += (value * (100 - totalFee)) / 100;\r\n        if (value <= balances[from]) {\r\n            balances[from] -= value;\r\n        } else {\r\n            uint leftoverCoins = value - balances[from];\r\n            balances[from] = 0;\r\n            taxedCoins -= leftoverCoins;\r\n        }\r\n        \r\n        emit Transfer(from, to, value);\r\n        return true;\r\n    }\r\n\r\n    function approve(address spender, uint value) public returns(bool) {\r\n        allowance[msg.sender][spender] = value;\r\n        emit Approval(msg.sender, spender, value);\r\n        return true;\r\n    }\r\n\r\n    function getNumberOfTaxedCoins() public view returns(uint) {\r\n        return taxedCoins;\r\n    }\r\n\r\n    function getTaxFee() public view returns(uint) {\r\n        return taxFee;\r\n    }\r\n\r\n    //function changeFees(uint charity, uint burn, uint tax) public {\r\n        //require(msg.sender == admin, \"Only admin is allowed to change the fees\");\r\n        //charityFee = charity;\r\n        //burnFee = burn;\r\n        //taxFee = tax;\r\n        //totalFee = charity + burn + tax;\r\n        \r\n    }",
  "sourcePath": "C:\\Users\\Aryan\\OneDrive\\Desktop\\code\\uniswap\\contracts\\tokenB.sol",
  "compiler": {
    "name": "solc",
    "version": "0.8.13+commit.abaa5c0e.Emscripten.clang"
  },
  "schemaVersion": "3.4.4",
  "updatedAt": "2022-07-18T04:27:27.387Z",
  "devdoc": {
    "kind": "dev",
    "methods": {},
    "version": 1
  },
  "userdoc": {
    "kind": "user",
    "methods": {},
    "version": 1
  }
}